:020000041000EA
:1000000000F00308D10200100D00000045030010AD
:1000100045030010450300104503001000000000D8
:10002000000000000000000000000000410300107C
:1000300041030010000000004103001041030010C4
:100040004103001041030010410300104103001060
:100050004103001041030010410300104103001050
:100060004103001041030010410300104103001040
:100070004103001041030010410300104103001030
:1002800041030010410300104103001010B5054C5C
:10029000237833B9044B13B10448AFF30080012332
:1002A000237010BD4C09000800000000DC23001082
:1002B00008B5034B1BB103490348AFF3008008BDE9
:1002C0000000000050090008DC2300107047704750
:1002D000FFF7FCFF72B6144C144DAC4209DA2168EA
:1002E0006268A368043BA2BFC858D050FAE70C3438
:1002F000F3E70F490F4A00209142BCBF41F8040BBD
:10030000FAE70D480D490860BFF34F8F00F0ACFAD3
:1003100000F086FAFFF7DBFF01F064FE01F0BAFDA2
:1003200001F04CFEFEE70000E0230010F82300106F
:100330004C090008C80C00080000000808ED00E0A7
:10034000FEE7FEE700B504207146084202D0EFF355
:10035000098001E0EFF30880043001F019FBFEE7AB
:100360000230800803D001300238FCD100BF00BF4A
:100370007047EFF3108072B6704780F310887047B3
:1003800070470000014B01221A607047DC0B000827
:1003900070B50646194B197093F83D30DB0911D042
:1003A0000122164B83F83C203446154D0FCD0FC467
:1003B0000FCD0FC40FCD0FC495E80F0084E80F00D8
:1003C000304670BD14460D4A92F83D3043F080032C
:1003D00082F83D3000200B4B18600B4B0B4A01217B
:1003E00000F0D6FE38B9002CDED0044B93F83D3037
:1003F000DB09FAD1D8E70322D3E700BF6809000878
:1004000070090008DC0B0008850300108C0200084E
:1004100070B590B006460D4600221949012000F043
:1004200009FF184B184C5C60DC60656094F83D3047
:1004300043F0200384F83D3094F83D306FF3C71348
:1004400084F83D30012211466846FFF7A1FFA36BF7
:10045000B12B02D9A36BB52B03D90B4B052283F823
:100460003C203446094D0FCD0FC40FCD0FC40FCD26
:100470000FC495E80F0084E80F00304610B070BD3F
:10048000810300108C020008680900087009000848
:1004900010B504460A462021FFF77AFF204610BD1A
:1004A00010B50446034B996401220321FFF770FF46
:1004B000204610BD6809000838B50546044CA16403
:1004C000E2641A463021FFF763FF284638BD00BFBB
:1004D0006809000870B590B006460C461D4DA96429
:1004E000002250216846FFF753FF95F83C30CBB906
:1004F000237B03F00703032B23D0174A1268002A3B
:10050000FBD0022B1ED0012B20D03446134D0FCD33
:100510000FC40FCD0FC40FCD0FC495E80F0084E8B2
:100520000F000BE0344608350FCD0FC40FCD0FC4BC
:100530000FCD0FC495E80F0084E80F00304610B0CF
:1005400070BDFEE7002001F003FCDEE7002001F0B3
:1005500031FBDAE768090008DC0B000870090008C5
:1005600008B500F04FF800F003F800F02DF808BDD2
:1005700008B5134A136899684FF08040C1F8000429
:100580009868B3F87010435823F47F4343F4A06392
:100590004350126892F86F1003238B4092F86C104E
:1005A00092F86E0081400B43916843F00043C1F81C
:1005B00000349368D3F80034024800F0F7F908BD1E
:1005C000E00B00088820001010B5094C094A0421EE
:1005D000204600F0FFFA084800F0E8F9074A052134
:1005E000204600F0F7FA064800F0E0F910BD00BF21
:1005F000000632408C200010C0200010C4200010E3
:10060000F820001008B5024800F0D0F908BD00BF7E
:10061000FC20001008B5044801F00CFA08B10020D5
:1006200008BD0248FCE700BF9C020008000002066B
:1006300010B500F0B9F90446FFF792FF0CB120465F
:1006400010BDFFF7E7FF0446F9E708B5012000F009
:1006500081FE08BD7047000030B4634BD3F880239F
:1006600002F00F0202F1D00153F8213003F007032A
:10067000032B1ED0042B1FD0CBB15C4B002A46D1DC
:10068000594AD2F8900500F00100D2F88815C1F35C
:100690000171D2F8882512F0405F1ED0524AD2F87C
:1006A0008825C2F30172012A18D0002216E0504BAF
:1006B000E4E7504B1B68E1E702F1C0034A4951F8F7
:1006C000233003F01F03112B04D0132B02D04FF45F
:1006D000FA43D3E74FF40043D0E7012202B108B94F
:1006E000032917D1404AD2F88015C1F31101D2F87D
:1006F0008405C0F30C00D2F88025C2F300620132F9
:10070000B3FBF0F301FB03F3B3FBF2F302E0013AB6
:10071000012A32D9344AD2F88023C2F30112D340DD
:10072000354A1360354AD2F89010C1F307210131E0
:100730001269120E0132B3FBF2F231480260B3FBD0
:10074000F1F3304A1360304A136003F5742202F269
:100750003F222E49A1FB0212C2F387422C490A70A4
:1007600003F2E7332B4AA2FB03239B092A4A1360B7
:10077000DB032A4A136030BC70471B4902F5C8707E
:1007800051F8204004F0010402F5C07551F825002D
:10079000C0F3017051F8251011F0405F09D02946CF
:1007A000114D55F82110C1F30171012902D000212A
:1007B00000E0012101B10CB90328ABD10A4C02F5CC
:1007C000C07254F8221001F07F0154F82200C0F3E7
:1007D000042054F82220C2F3044201FB03F3B3FBCC
:1007E000F0F3B3FBF2F395E70000264000366E010C
:1007F00000127A00BC020008C0020008000021407C
:10080000C4020008B8020008CC02000883DE1B43C3
:10081000D4020008D34D6210D0020008C8020008BC
:1008200008B50D4800F006F9FFF714FFFFF714FFB5
:1008300000221146032000F0FBFD084800F0D0FB29
:10084000074B1B6893F84D3013B900F0BBF908BD96
:10085000044800F03DFCF8E7A0210010C80900089A
:10086000E00B00080021001008B5FFF782FD074AE1
:10087000D2F8883043F47003C2F88830BFF34F8F4A
:10088000BFF36F8FFFF779FD08BD00BF00ED00E0FB
:100890002DE9F0470446884691461E46394B33F809
:1008A0001050431C152B04D8DBB2364A32F81370B3
:1008B00000E0F2270123A340334A134207D1454405
:1008C00035803388BB425BD20020BDE8F087A31E91
:1008D000112B16D8DFE803F009151D15150C0F159F
:1008E00015151515151515151512DFF8A8A012E028
:1008F000DFF8A4A00FE0DFF8A4A00CE0DFF8A0A0D0
:1009000009E04FF4F871214801F032F84FF0000A85
:1009100001E0DFF890A03780BAF1000FD1D0023C9F
:10092000112C12D8DFE804F009111811110B0D1168
:100930001111111111111111110F01220DE00322DA
:100940000BE0102209E0022207E040F205210F48E7
:1009500001F00EF8002200E004229045B1D21AF80E
:1009600008302B4419FA83F9A6F8009008F1010326
:100970009342A6DAD04498F801703D44AFB2A0E7A4
:100980000348A2E7742100109401080054210010CC
:1009900000000204342100103C210010402100100E
:1009A000502100103821001000207047F0B583B0AE
:1009B0000446FFF7DEFC06460DF10603A2786178D7
:1009C0002078FFF765FF054670B9BDF80630C3F320
:1009D000C70203F007031549895C012202FA03F3F9
:1009E000194214BF1746002705B9EFB92DB130469B
:1009F000FFF7C3FC284603B0F0BD0DF10603A27853
:100A000061782078FFF744FF05460028EFD1BDF854
:100A10000630C3F3C70103F00703044801229A40DC
:100A2000435C13434354E2E7014DE0E7480B000801
:100A300001000204014B1860704700BFE00B000882
:100A40001D4B98422FD00ED91C4B984231D019D94A
:100A50001B4B984223D00133984222D0023B98424C
:100A60001BD01848704740281FD006D980281ED0B8
:100A7000B0F5807FF5D11048704760B11028F0D1F3
:100A800011487047B0F1204F05D0104B9842E8D183
:100A90004FF4A0007047002070470D4870470D4884
:100AA00070470D487047044870470C4870470C4821
:100AB00070474FF4A400704706005200010000F098
:100AC000040000F0FF00520001005000090000A0E7
:100AD00001005200020052000300520002005000C8
:100AE0000500520038B5134B1B6893F82E30012BCC
:100AF00017D9104B1D682B6AB5F8AC2013442C464F
:100B0000D5F8B020D358002B11DB0B4B1868FFF73A
:100B100097FF6B6801229A6063689B68002BFBD18A
:100B200038BD4FF4E971054800F022FFE1E70448C1
:100B3000F6E700BFE00B0008680B00085422001025
:100B4000020050001A4B186028B102230370FF23E3
:100B5000437000234380174B1B6893F84C2002B965
:100B6000704700B583B0B3F93630ADF800300023DC
:100B700001931149684600F0A7FEBDF90030002B33
:100B800007DB03F01F015B0901228A400B4941F892
:100B90002320084B1B6893F84D3013B903B05DF860
:100BA00004FB02220649012000F044FBF6E700BFE7
:100BB000780B0008E00B0008C503000800E100E026
:100BC0008104000808B50248FFF7BCFF08BD00BF5C
:100BD000A8080008002800F0A0812DE9F041064691
:100BE000002A00F09C8114460D46072900F200817E
:100BF0002368012B00F20181636833F00F0340F09A
:100C00000181237A33F01F0340F00181E368032B55
:100C100000F202812369012B00F203816369012B39
:100C200000F20481A369012B00F20581E369032B23
:100C300000F20681236A012B00F20781636A012B0F
:100C400000F20881A36A012B00F20981E36A032BF9
:100C500000F20A81236B072B00F20B812768072D16
:100C600000F20C81012F00F20F81002F00F01281A1
:100C70000123AB40B3606768072D00F20F8137F0A6
:100C80000F0340F01181A800A64B1B6893F8791060
:100C90008B590F22824023EA020207F00F038340A0
:100CA00013438B51277A072D00F2048137F01F037D
:100CB00040F006819B4B1A689369F31ADB0952696D
:100CC0001B01D018032D40F201812B1F4168DA006F
:100CD0001F23934021EA030107F01F0393400B43B6
:100CE0004360E768082D00F20081032F00F20381C2
:100CF00068008C4B1B6893F878108B590322824054
:100D000023EA020207F00303834013438B51276950
:100D1000082D00F2F680012F04D940F27461824858
:100D200000F026FEB3690122AA4023EA020307F07D
:100D30000107AF401F43B761D4F81480072D00F2BC
:100D4000E680B8F1010F04D940F20E41764800F078
:100D50000FFE74490B6893F87AC05CF8060001270F
:100D6000AF4020EA070008F00102AA4002434CF815
:100D700006206A0002F1100C032303FA0CF31F4350
:100D80000B6893F87B00835923EA0707A36903F0F4
:100D90000103AB403B43E26902F0030202FA0CF2AA
:100DA000134383510B6893F87C20B15821F0FF0165
:100DB000236A03F00103606A400000F0020003436D
:100DC000A06A800000F004000343E06AC00000F065
:100DD00018000343206B4001C0B20343AD0005F48B
:100DE0007E7503FA05F50D43B5500020BDE8F0818E
:100DF0004F214E4800F0BCFDFAE650214B4800F070
:100E0000B7FDF9E65121494800F0B2FDF9E652215B
:100E1000464800F0ADFDF9E65321444800F0A8FD36
:100E2000F8E65421414800F0A3FDF7E655213F487C
:100E300000F09EFDF6E656213C4800F099FDF5E6EF
:100E400057213A4800F094FDF4E65821374800F065
:100E50008FFDF3E65921354800F08AFDF2E65A216C
:100E6000324800F085FDF1E65B21304800F080FD5E
:100E7000F0E65C212D4800F07BFDEFE640F23131D9
:100E8000294800F075FDEDE640F23231264800F0C9
:100E90006FFDEAE60123AB407360ECE640F2CE3131
:100EA000214800F065FDEAE640F2CF311E4800F02F
:100EB0005FFDE8E640F292211B4800F059FDF5E69F
:100EC00040F29321184800F053FDF3E6D1584FEA61
:100ED000C50C1F2000FA0CF021EA000107F01F07E3
:100EE00007FA0CF70F43D750FBE640F2F2610E48C9
:100EF00000F03EFDF9E640F2F3610B4800F038FDEA
:100F0000F6E640F27361084800F032FD03E740F274
:100F10000D41054800F02CFD13E7054870470448D3
:100F200064E700BFE00B0008AC2200108422001030
:100F300001005A0038B50C4B1B68D3F8B0301B5871
:100F4000002B0EDA0C4605460B0C1B041BB9A4B291
:100F50006C60002038BD4FF43971044800F008FD82
:100F6000F5E70348F6E700BFE00B00085422001045
:100F700001008A0038B50368002B0FDA0C460546DD
:100F8000C2600B0C1B041BB9A4B2AC60002038BDBE
:100F900040F2CA21024800F0EBFCF5E70148F6E711
:100FA0005422001001008A0038B504460D4651B1A4
:100FB000084B1B68D3F8B0301B59002B08DAE368E4
:100FC0002B60002038BDA321034800F0D1FCEFE7DF
:100FD0000248F7E7E00B0008D822001001008A0061
:100FE000034B1B6803B17047014B1860FBE700BF60
:100FF0007C0B00082DE9F8430446884691461E46BE
:10100000089F2F4B1B68002B3DD02D4B1B682C20BD
:1010100000FB04F01C18F5B21D50C6F307236360F3
:10102000360CA660274B1B6893F82E309D422FD2BA
:10103000244B1B681A6AB3F8AC1001FB0525256127
:10104000666893F82F309E4228D21E4B1B681D6A9B
:10105000803605EB46156561A668330C1B041BBB87
:10106000330C1B0433BBB3B243EA0646AE60C4F88C
:101070001C90C4F820800023A36117B1B7F9003099
:10108000A381BDE8F883BF210F4800F071FCBCE7E5
:101090004FF4E9710D4800F06BFCC9E74FF4F771AC
:1010A0000A4800F065FCD0E740F20D21074800F047
:1010B0005FFCD5E740F20E21044800F059FCD2E76E
:1010C0007C0B0008E00B00080423001054220010E1
:1010D000F0B58FB0044600283FD0A369072B41D854
:1010E000E36A002B43D0236B002B45D007AD04F1FE
:1010F00014060FCE0FC537682F6002AD26460FCEFF
:101100000FC533682B601F4B1B689B8E079A1344D7
:10111000ADF83030089B0D93A26AE16A0CAD0095E2
:101120003B460A98FFF766FF00210091069B0A469E
:101130000598FFF75FFF216B284600F0C5FBBDF95E
:101140003030002B07DB03F01F015B0901228A40CE
:101150000D4941F823200FB0F0BD5C210B4800F091
:1011600007FCBAE76021094800F002FCB8E76221F9
:10117000064800F0FDFBB6E76321044800F0F8FBE9
:10118000B4E700BFE00B000800E100E0042300101A
:10119000F8B506460F461D46144642B3204B1B6861
:1011A0005BB31F4B1B682C2101FB063001FB073191
:1011B0004B68012202FA03F31B04466802FA06F6A2
:1011C000026932B38F6937BB1268002A25DA228898
:1011D000134323600369DC6001238B614D62046962
:1011E000330C1B047BB9B6B2A6600020F8BD40F2F8
:1011F00007110C4800F0BCFBD0E74FF4847109489C
:1012000000F0B6FBCDE740F2CA21074800F0B0FB82
:10121000E9E70648EAE70648E8E70548E6E700BFE9
:101220007C0B0008042300105422001004028A00E2
:1012300007028A0070B504460E4615460F4B1B6820
:1012400073B10E4B1B682C2202FB0434236A6BB172
:10125000E369AB4210D9236A43F82560002070BDD2
:101260004FF4B471064800F083FBEAE74FF4B6711F
:10127000034800F07DFBEBE70248F0E77C0B000839
:10128000042300100A028A0070B582B00023019383
:10129000044680B12369A3B16369C3B1236AE3B192
:1012A0006369DD682A0C1ED1ADB2002D3DD16369A2
:1012B0001B6802B070BD40F2DB11244800F058FBFF
:1012C000E8E74FF4EE71214800F052FBE4E740F20A
:1012D000DD111E4800F04CFBE0E74FF4EF711B48B6
:1012E00000F046FBDCE712041A601B682069184B0B
:1012F0001B68D3F8B0301B58002BD5DA01A9FFF7D3
:1013000053FE60B9019803681E0CDBB2E2699A4291
:1013100006D9226A52F8233013B1984700E000261C
:1013200031462069FFF706FEBEE763691D601B6852
:10133000636A2BB19847002363620023A361B6E779
:10134000A36A002BF9D09847F7E700BF04230010E9
:10135000E00B000810B50446084B1B683BB1074B77
:101360001B682C2000FB0430FFF78EFF10BD40F2FD
:10137000BB11034800F0FCFAF1E700BF7C0B00084A
:1013800004230010254B1B6893F82E3083423DD96F
:1013900000293DD00B6813F01F0F3BD170B50D46EF
:1013A00004461E4B1B6893F82E30984222D21B4BEA
:1013B0001B68186AB3F8AC3003FB0404184E3460A1
:1013C0002A68D2080021686800F030FE002120461B
:1013D000FFF7B0FD34689DB12A4600212046FFF793
:1013E000C9FDC8B900210E4B1868FFF7A3FDA0B1D5
:1013F0000C4812E04FF4E9710B4800F0B9FAD6E757
:1014000040F2A231084800F0B3FAE5E70748704718
:101410000648704705487047024870BDE00B000859
:10142000800B000801018A005422001003018A0089
:1014300010B5044613464AB10BB311B3124A1160FA
:10144000536011462046FFF79DFF10BD0029F3D1E0
:101450000E4B1B6893F82E3098420AD20B4B1B6838
:101460001A6AB3F8AC3003FB0424094B1C6000205B
:10147000EBE74FF4E971074800F07AFAEEE7064827
:10148000E3E70548E1E700BFAC080008E00B00080F
:10149000800B00085422001003018A002DE9F0415E
:1014A000194B1B68DD682B6883422BD90C46460913
:1014B00000F01F00012303FA00F851B10027124B7E
:1014C00018680368002B08DB104DBCB12846BDE846
:1014D000F081FEF74EFF0746F1E76A6852F82630C2
:1014E00013EA080F08D023EA080342F82630002543
:1014F0000021FFF71FFDE8E7054DF9E73846FEF745
:101500003CFFE3E7034DE1E7800B0008030188009F
:101510000201880004018A000B4B1B68DB681A6813
:1015200082420ED9410900F01F00012202FA00F0A8
:101530005B6853F82130034201D1044870470448E6
:1015400070470448704700BF800B00080001880006
:101550000101880004018A00134B1B6893F83A309C
:1015600083421DD9042904D9A1F580739BB2132BA2
:1015700018D8FF2907D801F00701D0300B4B43F8EA
:1015800020100020704701F01F01084B00F1C0023D
:1015900043F82210D030042243F820200020704766
:1015A0000348704702487047E00B000800002640DF
:1015B00001004A0010B504460E4B1B6893F83A3000
:1015C000834209D904F1D0030B4A52F8230000F0FA
:1015D0000700042806D010BD40F26D11074800F046
:1015E000C7F9EFE7C03452F8240000F01F0040F4C0
:1015F0008070F0E7E00B0008000026403023001068
:101600002DE9F0410139072900F22281DFE811F0CC
:10161000080012002001180020012001200189008B
:101620008D4B1B78002B40F015818C4B01221A70DA
:10163000002502E00025894B1D702846BDE8F08199
:101640000024874B1C80874B1C800AE0651EAB4240
:1016500014D905F5C075844B53F82530DB0F9BB9C1
:101660000134824B1B6893F83B30A34257D3002CC4
:10167000ECD17D4BD3F88035DB0FF0E740F2EF3152
:101680007B4800F075F9E4E72046FFF793FF022856
:101690000BD0002CE4D1744AD2F8883523F04053A3
:1016A00043F00053C2F88835DAE7A4B96E4AD2F89D
:1016B000883523F0405343F00053C2F888350021A9
:1016C0002046FFF749FF0123A3409BB2644A1188DB
:1016D0000B431380C4E7621E04F27F13624951F882
:1016E000233013F0405F07D002F5C07351F8233068
:1016F000C3F30173012B06D10123A3409BB25949C7
:10170000088803430B80584902F5C07251F8223013
:1017100023F0405343F0005341F82230CFE7002537
:101720008BE74F4B1B8853B94F4BD3F88035002BB9
:10173000C0F28A800025494B00221A707DE74D4C8B
:10174000494BD3F8303503F00303032B05D0464B48
:10175000D3F830350CB1013CF2E7002C5ED1464D98
:10176000E9E7013C404BD3F8903513F0010F01D16C
:10177000002CF6D14CB1002E36D13B4AD2F8883538
:1017800043F04053C2F8883500250136374B1B68BB
:1017900093F83B30B342CED30127B740BFB2304BB2
:1017A0001B881F42F1D002213046FFF7D5FE002EE4
:1017B000D8D00BE008F5C8782B4B53F8283003F04D
:1017C0000103002BD6D1002CD4D0013C06F1FF3808
:1017D000264B1B6893F83B309845EBD340F207410A
:1017E000234800F0C5F8E5E71E4B1B881F420AD0CE
:1017F0001D4A06F27F1152F8213023F0405342F87F
:1018000021300025C1E7184A06F27F1152F8213035
:1018100043F0405342F821300025B6E70026164D2C
:10182000B4E7013B104AD2F8902512F0010F01D124
:10183000002BF6D153B10C4AD2F8883543F040530F
:10184000C2F88835002576E70A4BEBE70A4D72E7C8
:101850000A4DF2E6094DF0E6860B00088A0B0008F7
:10186000840B0008880B000800002640E00B0008ED
:101870005C23001040420F0002004200FF004200C3
:1018800038B50D4B9A680D4B9A4204D010300C4B72
:1018900053F8200038BD0D46044639B104F1100359
:1018A000064A52F8230042F82350F3E740F2411170
:1018B000044800F05DF8F1E700ED00E000000008EA
:1018C000000000108823001060B338B504460D46B0
:1018D0004368072B13D8B4F900306268002B13DB80
:1018E0005201D2B203F1604303F5614383F8002350
:1018F0000D4B9A680D4B9A420DD0002038BD3C210B
:101900000B4800F035F8E6E703F00F035201D2B2BE
:101910000849CA54ECE72946B4F90000FFF7B0FFC4
:101920000020EBE70448704700ED00E000000008ED
:101930008823001014ED00E00100560010B50446A5
:1019400005E0084B1868FEF70BFDA4F50044B4F55C
:10195000004FF6D8044B186800FB04F0FEF700FDBA
:1019600010BD00BFC8020008D002000801BEFEE79B
:1019700038B50D46044C18220146204600F05EFBA7
:10198000A5610020FFF7F2FFB8080008FEE700009D
:1019900008B50268254BDA6142681A6282685A62A9
:1019A000C2689A620269DA6242691A6382695A639A
:1019B000C2699A631E4A916AD963D16A1964516AED
:1019C0005964516B9964926BDA64F1EE103A13F03A
:1019D000900F27D0026A154B1A65426A5A65826ACF
:1019E0009A65C26ADA65026B1A66426B5A66826B46
:1019F0009A66C26BDA66026C1A67426C5A67826C2E
:101A00009A67C26CDA67026DC3F88020426DC3F832
:101A10008420826DC3F88820C26DC3F88C20026ECA
:101A2000C3F89020FFF7B2FF08BD00BFB808000858
:101A300000ED00E000283BD00246C368002B39D0FF
:101A40000368002B38D030B405791D4B53F82510AE
:101A500031B30C4600E019464B693BB1914205D0C9
:101A6000187E117E8842F6D81C46F4E7914225D0B4
:101A7000236943B163695361146103B11A616261FF
:101A8000012030BC7047117E237E9942F2D254610E
:101A90000023136122610A4B43F825200120F0E75F
:101AA000074B43F825000023436103610120E8E769
:101AB0000020704700207047002070470020E0E7BA
:101AC000C40B000870B582B006460D46022803D943
:101AD000042801D0032816D16B1EDBB2012B03D9D9
:101AE000042D01D0082D14D12D4B53F82640042D80
:101AF0002ED0012D2ED0022D3DD12A4B1C68002C5A
:101B00003CD024693AE040F6F5112748FFF730FF52
:101B1000E2E740F6F6112448FFF72AFFE4E7A3685E
:101B20001D420AD1E3681A6800925B68019323683A
:101B30002946684698471B4B1C60646924B11B4BBF
:101B40009842ECD1012DEAD1012D05D002B070BD33
:101B50000020F3E70020F1E7144B984204D0144B27
:101B6000002243F82620F1E70E4B1A68104B43F889
:101B70002620EBE71C466369002BFBD1002000E028
:101B80002469002CE2D0A3681D42F9D1E3681A68E9
:101B900000925B6801932368294668469847EFE7FF
:101BA000C40B0008C00B0008B4230010FF00420063
:101BB000AC0B000870B50446012827D8254B1B68DC
:101BC00053B301210020FFF77DFF054600283AD1DD
:101BD000FEF7CFFB06461F4B1B681BB104210020FC
:101BE000FFF770FF1C4A136923F004031361012CF3
:101BF00014D030BF3046FEF7C0FB164B1B681BB13C
:101C000008210020FFF75EFF284670BD40F2CF118B
:101C10001248FFF7ADFED1E70025D9E720BF4FF00E
:101C2000B0539B899BB233B14FF0B0539B899BB2A9
:101C3000B3F5807FDED10A4B1B7803B120BF084B80
:101C400001221A70D6E702210020FFF73BFF054D65
:101C5000DAE700BFC40B000800ED00E0B423001079
:101C6000D80B0008FF00420010B5044600282BD016
:101C7000184A1368DB6803F5F2431B682360136896
:101C8000DA6802F5F04212686260D96847F6040229
:101C90008A58A260D96847F608028A58E260D96873
:101CA00047F60C028A582261D96847F610028A5812
:101CB0006261D96847F614028A58A261DA6847F669
:101CC0001803D358E36110BD40F614310248FFF702
:101CD0004FFECDE7E00B0008B423001010B504461A
:101CE00000282AD0184B1B68DA68616802F5F042B8
:101CF0001160D968A06847F604028850D968E06886
:101D000047F608028850D968206947F60C028850C7
:101D1000D968606947F610028850D968A06947F60B
:101D200014028850D968E06947F618028850DB68C9
:101D3000226803F5F2431A6010BD40F63C310348B7
:101D4000FFF716FECEE700BFE00B0008B42300103B
:101D500070B5044601284ED8474B5B68002B50D025
:101D600001210846FFF7AEFE054600286BD1FEF7BD
:101D700000FB0646404B5B681BB104210120FFF7C6
:101D8000A1FE3E4B1B6893F841202AB19B68D3F813
:101D9000E03013F0100F36D14FF0B0539B899BB257
:101DA00033B14FF0B0539B899BB2B3F5807F39D1EB
:101DB000204600F065F9314B1B6893F84120002A5A
:101DC0003ED000283CD09A68D2F8E02012F0100FE4
:101DD00036D04FF0B05252787AB34FF0B0525278BA
:101DE000D2B2212A39D01A6AB3F8AC30C3EBC3039C
:101DF0001344D86822E040F2B2212148FFF7B8FD31
:101E0000AAE70025B3E71F48FFF72EFFC4E720BF6E
:101E10001A4B1B681A68D3F89030D35803F00303A9
:101E2000022B08D1184A136943F004031361012CF3
:101E3000EDD030BFECE70020BDE71248FFF74EFFC2
:101E40003046FEF79AFA55B90B4B5B681BB1082177
:101E50000120FFF737FE284670BD0A48EEE7064B23
:101E60005B681BB102210120FFF72CFE074B9D424E
:101E7000F1D0074DEFE700BFC40B0008E00B0008EE
:101E8000B42300108C0B000800ED00E005004200B8
:101E9000FF004200F0B591B0FEF7CAFB00B101BEF1
:101EA000FEF75EFB62B63F4B10229A603E4F3F4901
:101EB0006846FEF7ADFA3D466C460FCC0FC50FCC19
:101EC0000FC50FCC0FC594E80F0085E80F00384907
:101ED0006846FEF7E5FA01216846FEF7D9FA3E4664
:101EE0006C460FCC0FC60FCC0FC60FCC0FC694E8B4
:101EF0000F0085E80F0097F8223013F0200F06D16D
:101F0000284B1022DA606420FFF718FDF8E7254B14
:101F100010225A604FF47A70FFF710FD0FE0214B4A
:101F20001022DA606420FFF709FD0134092CF6DD88
:101F30001C4B10225A601F496846FEF7CBFA194B1A
:101F400010229A601C4948230B7045234B704C2388
:101F50008B70CB704F220A712020487157208871F6
:101F6000CA7152220A724B7244238B720E4E0123A5
:101F70000B226846FEF7A0FA35466C460FCC0FC51B
:101F80000FCC0FC50FCC0FC594E80F0085E80F00EC
:101F90004FF47A70FFF7D2FC96F83430012BC7D19A
:101FA0000024C3E700063240480C00081C03000868
:101FB000E40B00083C030008080C000838B5074D86
:101FC000074C641BA4101CB9BDE8384000F052B89F
:101FD000013C55F824309847F5E700BF540300084A
:101FE0005803000870B50D4E0D4CA41BA41000251D
:101FF000A54209D10B4E0C4C00F036F8A41BA410DE
:102000000025A54205D170BD56F825309847013509
:10201000EEE756F8253098470135F2E750030008FF
:10202000500300085003000854030008024403460C
:10203000934200D1704703F8011BF9E770B50139ED
:10204000044602B970BD234611F8015F03F8015B35
:10205000561E2DB91444A342F4D003F8015BFAE7ED
:102060001C463246EDE70000F8B500BFF8BC08BCDE
:102070009E467047F8B500BFF8BC08BC9E46704746
:102080005FF800F05906000804000000000000009E
:10209000060000000000000000000000000000003A
:1020A000000000000100000001000000000000002E
:1020B0000000000000000000000000000000000020
:1020C000080C0400000000000600000000000000F2
:1020D00000000000000000000000000001000000FF
:1020E00001000000000000000000000000000000EF
:1020F0000000000000000000080C050003020000C2
:1021000003000000010000000100000000000000CA
:102110000503600004000000010000000000000052
:10212000010000000604600008000000280B000801
:102130004B060010000000000008181C00102000D2
:1021400000081018202830384048505860687078CF
:10215000000800006C6962732F70736F63366861EA
:102160006C2F7372632F637968616C5F68776D673A
:10217000722E63000000010002000200070024002C
:10218000250026004600BE00BF00C000C200C400FB
:10219000C600C700C700C800D100D100F100F2009E
:1021A00000002140000025400000014000003440B4
:1021B00000002440000031400000324000001F4178
:1021C00000002340000011401010101010101010DB
:1021D0001010800019005500F0000501053B0410A7
:1021E0001C0101000FC000000004000001010101FA
:1021F000011D3A57789600082000101208000000D0
:10220000001F00000010000F002000023F06080E13
:1022100000080009000A000B24282C3034000000BC
:10222000100000009000000088000000080000007E
:102230008000000004F0000000F0000040020000F8
:102240002005A000D00100018001A00120000000B5
:10225000100000002E2F6C6962732F70736F63364D
:1022600070646C2F647269766572732F696E636C2B
:102270007564652F63795F6970635F6472762E6839
:10228000000000006C6962732F70736F63367064B6
:102290006C2F647269766572732F736F75726365E4
:1022A0002F63795F6770696F2E6300002E2F6C6952
:1022B00062732F70736F633670646C2F647269760B
:1022C0006572732F696E636C7564652F63795F67E0
:1022D00070696F2E680000006C6962732F70736FF5
:1022E000633670646C2F647269766572732F736FD6
:1022F000757263652F63795F6970635F6472762EB0
:10230000630000006C6962732F70736F63367064D2
:102310006C2F647269766572732F736F7572636563
:102320002F63795F6970635F706970652E63000069
:102330006C6962732F70736F633670646C2F647294
:1023400069766572732F736F757263652F63795F3A
:10235000737973636C6B2E63000000002E2F6C6921
:1023600062732F70736F633670646C2F647269765A
:102370006572732F696E636C7564652F63795F7323
:102380007973636C6B2E68006C6962732F70736F66
:10239000633670646C2F647269766572732F736F25
:1023A000757263652F63795F737973696E742E63D9
:1023B000000000006C6962732F70736F6336706485
:1023C0006C2F647269766572732F736F75726365B3
:1023D0002F63795F737973706D2E630000000000C6
:1023E00000000010000000088C0200000024001013
:0823F0008C0200081C0600002D
:0823F8004C0900087C03000001
:102400000100600068090008000060006809000819
:10241000011600100100000000000000C0090008C3
:102420000000000000000000FF00000000127A0021
:102430000048E80100127A0000093D000000A00FEA
:1024400000127A00401F00000800000002800059BE
:10245000C9681F7C6D3670B3D57ED00191382A19BA
:10246000A65A6924846EDC7B81A0F5C9FD6F00004B
:10247000000000000000000000000000000000005C
:10248000000000000000000000000000000000004C
:1024900000000001D8020008F10064000000000004
:1024A000000000000000000000000000000000002C
:1024B0000300000001000000000005003A000000D9
:1024C00000000000B10200108D02001080B2C100B7
:1024D00050B3164B1B681A6AB3F8AC30C3EBC30396
:1024E000D358002BF5DA124B3E221A60043341F622
:1024F0001E721A60A3F584730622C3F8182521F012
:102500007F41C3F81C15D3F81C35084B1B681A6AA9
:10251000B3F8AC30C3EBC303134400225A60054B3D
:10252000D3F81C35002BFADA704700BFE00B000827
:102530000401264000002640F8B5284B1B6893F89C
:102540002E30052B36D9254F3A68166AB2F8AC30D2
:1025500003EB83031E4452684FF26003D458A4B2C5
:1025600000F03CFA05463B681968D3F88C208A587D
:10257000013C032C1AD8032A22D01968D3F88020F2
:102580008B581B0E8A58C2F30722581C02FB00000E
:10259000134B03FB00F0134B1B68134AA2FB0323EE
:1025A0009B09B0FBF3F08230FFF790FF284600F064
:1025B00031FAF8BD4FF4E9710C4800F023FAC2E794
:1025C0000B4A1278002AD8D10822B2601968D3F8D1
:1025D0008C208A58032AF9D0CFE700BFE00B00080F
:1025E00040420F00C0020008D34D62105422001078
:1025F0000B0000164378FF2B00D0704710B500F099
:10260000EDF90446104B1B6893F82E30032B15D9B7
:102610000D4B1B681A6AB3F8AC3003EB4303134449
:10262000DB685A68136843F001031360136813F002
:10263000010FFBD1204600F0EDF910BD4FF4E97118
:10264000024800F0DFF9E3E7E00B00085422001035
:102650002DE9F84307468846524B1B6893F82E3005
:10266000012B33D94F4B1B681C6AB3F8AC201444C0
:10267000D3F8B050254493F84C30002B73D04A4B1C
:102680001B78002B40D1474B1B6893F82E30052B4D
:1026900022D9444B19680A6AB1F8AC3003EB8303C2
:1026A0001344D1F8B020D358002B74DB002000F085
:1026B00099F93E4B984270D000233D4A126801219F
:1026C000184600F097F968B900260EE04FF4E9715A
:1026D000384800F097F9C5E74FF4E971354800F044
:1026E00091F9D6E7344C26E00136002000F07AF963
:1026F0002E4B984202D0314B9E42F5D92F4B9E4231
:102700004DD84FF0010901E04FF0000900F066F9E3
:1027100006462B4BD3F81C35002B0FDB264CB9F1AA
:10272000000F05D00121002000F060F90028F9D148
:10273000304600F06FF92046BDE8F883214A0121B8
:10274000204600F063F908B11B4CE8E74046FFF76C
:10275000BDFE37B12B68002BFCDB00F04FF90446BF
:10276000DDE7194CDBE700F039F90646154A01218F
:10277000204600F04BF938B95FB12B68002BFCDB29
:1027800000F03CF9044600E00B4C304600F042F902
:10279000D1E70D4CF9E7084CCDE7074CCBE7064CE9
:1027A000C9E700BFE00B00080B000016010188001C
:1027B000780B00085422001005005200EF49020077
:1027C00000002640680B000801005000F0B47C4B6C
:1027D0001A68116AB2F8AC30C3EBC30319445568E8
:1027E0000B68002BFCDA4FF0B0535B7843B14FF02D
:1027F000B0535B78DBB2212B02D0724BCB603BE055
:10280000CB6843F00103CB60136AB2F8AC40C4EB71
:10281000C4042344DC6814F0020F2DD0DE68B6B285
:102820001768D2F880403C59240A240404F47F0C31
:10283000D2F884403F593F0A4CEA07643443DC60D5
:102840001468D2F88020A35823F47F4343F4106324
:10285000A3505B4A13681E68D3F88440335923F4AD
:102860007F4343F41063335113681A68D3F88040F0
:102870001459D3F88430D358514B1B681C6AB3F8F1
:10288000AC20C2EBC2022244002454601C68D3F87E
:1028900090301C440CE020BF4B4B1B7803B120BF91
:1028A000494B01221A70236803F00303022B08D15D
:1028B000464A136943F0040313610128EBD030BF8B
:1028C000F1E70B68002BFCDA4FF0B0535B787BB379
:1028D0004FF0B0535B78DBB2212B29D0D5F80C3107
:1028E000002B6BD13A490E683A4BD3F818453A4A57
:1028F000106841F61E770F600621C3F818153E21B7
:1029000011604422C3F81C25324BD3F81C35002B30
:10291000FADA4FF0AA33C5F80C312D4B1E60A3F53F
:102920008473C3F8184503F582731860012037E0FB
:10293000234B19680A6AB1F8AC30C3EBC3031344E4
:10294000DA6812F0020F37D00868D1F880104258C8
:1029500022F47F42DB681B0C1B029BB213434350E3
:10296000174B19680D68D1F884402B5923F47F4325
:10297000086AB1F8AC20C2EBC2020244D268120E5F
:1029800043EA02232B5101200D4B1A68136AB2F857
:10299000AC20C2EBC2021344DA6822F00102DA6012
:1029A000074B1B681A6AB3F8AC30C3EBC30313447C
:1029B00000225A60F0BC70470020E5E70020EFE7F6
:1029C000E00B00088C0B0008D80B000800ED00E0BD
:1029D0000801264000002640040126405FF800F070
:1029E000730300105FF800F0191500105FF800F095
:1029F0009D1400105FF800F0911100105FF800F0D6
:102A0000E50A00105FF800F0711900105FF800F09F
:0C2A1000750F00105FF800F07B03001051
:0C2A1C00000000000000000000000000AE
:04000005100002D114
:00000001FF
